{
  "contractName": "DCAInvestor",
  "abi": [
    {
      "constant": true,
      "inputs": [],
      "name": "uniFactory",
      "outputs": [
        {
          "name": "",
          "type": "address"
        }
      ],
      "payable": false,
      "stateMutability": "view",
      "type": "function"
    },
    {
      "constant": true,
      "inputs": [],
      "name": "uniExchange",
      "outputs": [
        {
          "name": "",
          "type": "address"
        }
      ],
      "payable": false,
      "stateMutability": "view",
      "type": "function"
    },
    {
      "inputs": [
        {
          "name": "_factoryAddress",
          "type": "address"
        },
        {
          "name": "_tokenAddress",
          "type": "address"
        }
      ],
      "payable": false,
      "stateMutability": "nonpayable",
      "type": "constructor"
    },
    {
      "anonymous": false,
      "inputs": [
        {
          "indexed": true,
          "name": "investor",
          "type": "address"
        },
        {
          "indexed": false,
          "name": "timestamp",
          "type": "uint256"
        }
      ],
      "name": "TermPeriodAllocation",
      "type": "event"
    },
    {
      "anonymous": false,
      "inputs": [
        {
          "indexed": true,
          "name": "investor",
          "type": "address"
        },
        {
          "indexed": false,
          "name": "timestamp",
          "type": "uint256"
        }
      ],
      "name": "StrategyCreated",
      "type": "event"
    },
    {
      "constant": false,
      "inputs": [
        {
          "name": "_termPeriod",
          "type": "uint256"
        },
        {
          "name": "_periods",
          "type": "uint256"
        }
      ],
      "name": "createStrategy",
      "outputs": [],
      "payable": true,
      "stateMutability": "payable",
      "type": "function"
    },
    {
      "constant": false,
      "inputs": [
        {
          "name": "_strategyId",
          "type": "uint256"
        }
      ],
      "name": "allocateToStrategy",
      "outputs": [
        {
          "name": "_tokensBought",
          "type": "uint256"
        }
      ],
      "payable": false,
      "stateMutability": "nonpayable",
      "type": "function"
    },
    {
      "constant": true,
      "inputs": [
        {
          "name": "_strategyId",
          "type": "uint256"
        }
      ],
      "name": "getStrategy",
      "outputs": [
        {
          "name": "_totalAllocation",
          "type": "uint256"
        },
        {
          "name": "_totalAllocated",
          "type": "uint256"
        },
        {
          "name": "_termPeriod",
          "type": "uint256"
        },
        {
          "name": "_termPeriodAllocation",
          "type": "uint256"
        },
        {
          "name": "_numPeriods",
          "type": "uint256"
        },
        {
          "name": "_tokenBalance",
          "type": "uint256"
        }
      ],
      "payable": false,
      "stateMutability": "view",
      "type": "function"
    },
    {
      "constant": true,
      "inputs": [
        {
          "name": "_strategyId",
          "type": "uint256"
        }
      ],
      "name": "getStrategyAccountInfo",
      "outputs": [
        {
          "name": "_createdAt",
          "type": "uint256"
        },
        {
          "name": "_nextAllowedAt",
          "type": "uint256"
        },
        {
          "name": "_owner",
          "type": "address"
        }
      ],
      "payable": false,
      "stateMutability": "view",
      "type": "function"
    },
    {
      "constant": true,
      "inputs": [
        {
          "name": "_investor",
          "type": "address"
        }
      ],
      "name": "getStrategiesByAddress",
      "outputs": [
        {
          "name": "_strategyIds",
          "type": "uint256[]"
        }
      ],
      "payable": false,
      "stateMutability": "view",
      "type": "function"
    },
    {
      "constant": true,
      "inputs": [
        {
          "name": "_ethSold",
          "type": "uint256"
        }
      ],
      "name": "getEthToTokenInputPrice",
      "outputs": [
        {
          "name": "_",
          "type": "uint256"
        }
      ],
      "payable": false,
      "stateMutability": "view",
      "type": "function"
    }
  ],
  "bytecode": "0x6080604052600160035534801561001557600080fd5b506040516040806110e48339810180604052604081101561003557600080fd5b810190808051906020019092919080519060200190929190505050816000806101000a81548173ffffffffffffffffffffffffffffffffffffffff021916908373ffffffffffffffffffffffffffffffffffffffff16021790555060008060009054906101000a900473ffffffffffffffffffffffffffffffffffffffff1673ffffffffffffffffffffffffffffffffffffffff166306f2bf62836040518263ffffffff167c0100000000000000000000000000000000000000000000000000000000028152600401808273ffffffffffffffffffffffffffffffffffffffff1673ffffffffffffffffffffffffffffffffffffffff16815260200191505060206040518083038186803b15801561014c57600080fd5b505afa158015610160573d6000803e3d6000fd5b505050506040513d602081101561017657600080fd5b8101908080519060200190929190505050905080600160006101000a81548173ffffffffffffffffffffffffffffffffffffffff021916908373ffffffffffffffffffffffffffffffffffffffff16021790555081600260006101000a81548173ffffffffffffffffffffffffffffffffffffffff021916908373ffffffffffffffffffffffffffffffffffffffff160217905550505050610ec78061021d6000396000f3fe60806040526004361061008e576000357c0100000000000000000000000000000000000000000000000000000000900463ffffffff1680630ed8ae1514610093578063373860821461013957806376771d4b1461018857806386b49a0f146101df57806393a9b18b146102175780639be6038e146102a0578063cd7724c3146102f7578063cfc0cc3414610346575b600080fd5b34801561009f57600080fd5b506100e2600480360360208110156100b657600080fd5b81019080803573ffffffffffffffffffffffffffffffffffffffff1690602001909291905050506103b8565b6040518080602001828103825283818151815260200191508051906020019060200280838360005b8381101561012557808201518184015260208101905061010a565b505050509050019250505060405180910390f35b34801561014557600080fd5b506101726004803603602081101561015c57600080fd5b810190808035906020019092919050505061044f565b6040518082815260200191505060405180910390f35b34801561019457600080fd5b5061019d61088e565b604051808273ffffffffffffffffffffffffffffffffffffffff1673ffffffffffffffffffffffffffffffffffffffff16815260200191505060405180910390f35b610215600480360360408110156101f557600080fd5b8101908080359060200190929190803590602001909291905050506108b3565b005b34801561022357600080fd5b506102506004803603602081101561023a57600080fd5b8101908080359060200190929190505050610c20565b604051808481526020018381526020018273ffffffffffffffffffffffffffffffffffffffff1673ffffffffffffffffffffffffffffffffffffffff168152602001935050505060405180910390f35b3480156102ac57600080fd5b506102b5610c97565b604051808273ffffffffffffffffffffffffffffffffffffffff1673ffffffffffffffffffffffffffffffffffffffff16815260200191505060405180910390f35b34801561030357600080fd5b506103306004803603602081101561031a57600080fd5b8101908080359060200190929190505050610cbd565b6040518082815260200191505060405180910390f35b34801561035257600080fd5b5061037f6004803603602081101561036957600080fd5b8101908080359060200190929190505050610d90565b60405180878152602001868152602001858152602001848152602001838152602001828152602001965050505050505060405180910390f35b6060600460008373ffffffffffffffffffffffffffffffffffffffff1673ffffffffffffffffffffffffffffffffffffffff16815260200190815260200160002080548060200260200160405190810160405280929190818152602001828054801561044357602002820191906000526020600020905b81548152602001906001019080831161042f575b50505050509050919050565b60006005600083815260200190815260200160002060000160009054906101000a900473ffffffffffffffffffffffffffffffffffffffff1673ffffffffffffffffffffffffffffffffffffffff163373ffffffffffffffffffffffffffffffffffffffff1614151561052a576040517f08c379a000000000000000000000000000000000000000000000000000000000815260040180806020018281038252601b8152602001807f596f7520646f6e2774206f776e2074686973207374726174656779000000000081525060200191505060405180910390fd5b60056000838152602001908152602001600020600401546006600084815260200190815260200160002054101515156105cb576040517f08c379a000000000000000000000000000000000000000000000000000000000815260040180806020018281038252601e8152602001807f53747261746567792068617320636f6d706c65746564206974732072756e000081525060200191505060405180910390fd5b42600560008481526020019081526020016000206007015411151515610659576040517f08c379a00000000000000000000000000000000000000000000000000000000081526004018080602001828103825260168152602001807f4e6f74207965742074696d6520746f20696e766573740000000000000000000081525060200191505060405180910390fd5b600060056000848152602001908152602001600020600401549050600060056000858152602001908152602001600020600301549050816006600086815260200190815260200160002060008282540392505081905550600160009054906101000a900473ffffffffffffffffffffffffffffffffffffffff1673ffffffffffffffffffffffffffffffffffffffff1663ad65d76d836001600019336040518563ffffffff167c0100000000000000000000000000000000000000000000000000000000028152600401808481526020018381526020018273ffffffffffffffffffffffffffffffffffffffff1673ffffffffffffffffffffffffffffffffffffffff16815260200193505050506020604051808303818588803b15801561078057600080fd5b505af1158015610794573d6000803e3d6000fd5b50505050506040513d60208110156107ab57600080fd5b810190808051906020019092919050505092508260056000868152602001908152602001600020600801600082825401925050819055508060056000868152602001908152602001600020600701540160056000868152602001908152602001600020600701819055508160056000868152602001908152602001600020600201600082825401925050819055503373ffffffffffffffffffffffffffffffffffffffff167fd9fb59c9011f8d5397a32219aa69e215b84e04c1368c40c29ab47c32b207a32b426040518082815260200191505060405180910390a25050919050565b6000809054906101000a900473ffffffffffffffffffffffffffffffffffffffff1681565b60003411151561092b576040517f08c379a00000000000000000000000000000000000000000000000000000000081526004018080602001828103825260178152602001807f4e6f20696e766573746d656e7420616c6c6f636174656400000000000000000081525060200191505060405180910390fd5b6000811115156109a3576040517f08c379a000000000000000000000000000000000000000000000000000000000815260040180806020018281038252601e8152602001807f4e6f6e2d706f736974697665206e756d626572206f6620706572696f6473000081525060200191505060405180910390fd5b600082111515610a1b576040517f08c379a000000000000000000000000000000000000000000000000000000000815260040180806020018281038252601d8152602001807f4e6f6e2d706f736974697665206c656e677468206f6620706572696f6400000081525060200191505060405180910390fd5b610a23610e38565b610120604051908101604052803373ffffffffffffffffffffffffffffffffffffffff168152602001348152602001600081526020018481526020018334811515610a6a57fe5b0481526020018381526020014281526020014281526020016000815250905034600660006003548152602001908152602001600020819055508060056000600354815260200190815260200160002060008201518160000160006101000a81548173ffffffffffffffffffffffffffffffffffffffff021916908373ffffffffffffffffffffffffffffffffffffffff1602179055506020820151816001015560408201518160020155606082015181600301556080820151816004015560a0820151816005015560c0820151816006015560e082015181600701556101008201518160080155905050600460003373ffffffffffffffffffffffffffffffffffffffff1673ffffffffffffffffffffffffffffffffffffffff168152602001908152602001600020600360008154809291906001019190505590806001815401808255809150509060018203906000526020600020016000909192909190915055503373ffffffffffffffffffffffffffffffffffffffff167fb3ea1878ac1e21af2a836c6a8954f8574fee7756d891ab719758266220aedd08426040518082815260200191505060405180910390a2505050565b6000806000600560008581526020019081526020016000206006015460056000868152602001908152602001600020600701546005600087815260200190815260200160002060000160009054906101000a900473ffffffffffffffffffffffffffffffffffffffff169250925092509193909250565b600160009054906101000a900473ffffffffffffffffffffffffffffffffffffffff1681565b6000600160009054906101000a900473ffffffffffffffffffffffffffffffffffffffff1673ffffffffffffffffffffffffffffffffffffffff1663cd7724c3836040518263ffffffff167c01000000000000000000000000000000000000000000000000000000000281526004018082815260200191505060206040518083038186803b158015610d4e57600080fd5b505afa158015610d62573d6000803e3d6000fd5b505050506040513d6020811015610d7857600080fd5b81019080805190602001909291905050509050919050565b60008060008060008060056000888152602001908152602001600020600101546005600089815260200190815260200160002060020154600560008a815260200190815260200160002060030154600560008b815260200190815260200160002060040154600560008c815260200190815260200160002060050154600560008d81526020019081526020016000206008015495509550955095509550955091939550919395565b61012060405190810160405280600073ffffffffffffffffffffffffffffffffffffffff1681526020016000815260200160008152602001600081526020016000815260200160008152602001600081526020016000815260200160008152509056fea165627a7a723058204a821e2329c055f702a001001dbfc27c37c2ef850b235050714af35275152ad60029",
  "source": "pragma solidity ^0.5.0;\nimport \"./IUniswapExchange.sol\";\nimport \"./IUniswapFactory.sol\";\nimport \"./IERC20.sol\";\n\ncontract DCAInvestor {\n    uint256 constant UINT256_MAX = ~uint256(0);\n\n    struct DCAStrategy {\n        address owner;\n        uint totalAllocation; // wei\n        uint totalAllocated; // wei\n        uint termPeriod; // seconds\n        uint termPeriodAllocation; // wei\n        uint numPeriods; // units of time\n        uint createdAt; // timestamp\n        uint nextAllowedAt; // timestamp\n        uint tokenBalance; // BAT tokens\n    }\n\n    event TermPeriodAllocation(address indexed investor, uint timestamp);\n\n    event StrategyCreated(address indexed investor, uint timestamp);\n\n    IUniswapFactory public uniFactory;\n    IUniswapExchange public uniExchange;\n    address tokenAddress;\n\n    uint strategyId = 1;\n\n    mapping(address => uint[]) addressToStrategyIds;\n    mapping(uint => DCAStrategy) idToStrategies;\n    mapping(uint => uint) unallocatedFunds;\n\n    constructor(address _factoryAddress, address _tokenAddress) public {\n        uniFactory = IUniswapFactory(_factoryAddress);\n        address exchangeAddress = uniFactory.getExchange(_tokenAddress);\n        uniExchange = IUniswapExchange(exchangeAddress);\n        tokenAddress = _tokenAddress;\n    }\n\n    /* \n        @dev Creates a dollar cost averaging strategy\n        @param _termPeriod is the unit of time between each investment allocation - denominated in seconds.\n        @param _periods is the number of term periods in the strategy.\n        @return - .\n    */\n    function createStrategy(uint _termPeriod, uint _periods) public payable {\n        require(msg.value > 0, \"No investment allocated\");\n        require(_periods > 0, \"Non-positive number of periods\");\n        require(_termPeriod > 0, \"Non-positive length of period\");\n\n        DCAStrategy memory strategy = DCAStrategy({\n            owner: msg.sender,\n            totalAllocation: msg.value,\n            totalAllocated: 0,\n            termPeriod: _termPeriod,\n            termPeriodAllocation: (msg.value / _periods),\n            numPeriods: _periods,\n            createdAt: block.timestamp,\n            nextAllowedAt: block.timestamp,\n            tokenBalance: 0\n        });\n\n        unallocatedFunds[strategyId] = msg.value;\n\n        idToStrategies[strategyId] = strategy;\n        addressToStrategyIds[msg.sender].push(strategyId++);\n        emit StrategyCreated(msg.sender, block.timestamp);\n    }\n\n    /* \n        @dev Allocates to an existing dollar cost averaging strategy\n        @param _strategyId is the existing strategy id\n        @return the number of BAT tokens bought in this term period\n    */\n    function allocateToStrategy(uint _strategyId)\n        public\n        returns (uint _tokensBought)\n    {\n        require(\n            msg.sender == idToStrategies[_strategyId].owner,\n            \"You don't own this strategy\"\n        );\n        require(\n            unallocatedFunds[_strategyId] >= idToStrategies[_strategyId].termPeriodAllocation,\n            \"Strategy has completed its run\"\n        );\n        require(\n            idToStrategies[_strategyId].nextAllowedAt <= block.timestamp,\n            \"Not yet time to invest\"\n        );\n\n        uint allocation = idToStrategies[_strategyId].termPeriodAllocation;\n        uint termPeriod = idToStrategies[_strategyId].termPeriod;\n\n        unallocatedFunds[_strategyId] -= allocation;\n        _tokensBought = uniExchange.ethToTokenTransferInput.value(allocation)(\n            1,\n            UINT256_MAX,\n            msg.sender\n        );\n        idToStrategies[_strategyId].tokenBalance += _tokensBought;\n\n        idToStrategies[_strategyId].nextAllowedAt = idToStrategies[_strategyId].nextAllowedAt + termPeriod;\n        idToStrategies[_strategyId].totalAllocated += allocation;\n        emit TermPeriodAllocation(msg.sender, block.timestamp);\n    }\n\n    function getStrategy(uint _strategyId)\n        public\n        view\n        returns (\n            uint _totalAllocation,\n            uint _totalAllocated,\n            uint _termPeriod,\n            uint _termPeriodAllocation,\n            uint _numPeriods,\n            uint _tokenBalance\n        )\n    {\n        return (\n            idToStrategies[_strategyId].totalAllocation,\n            idToStrategies[_strategyId].totalAllocated,\n            idToStrategies[_strategyId].termPeriod,\n            idToStrategies[_strategyId].termPeriodAllocation,\n            idToStrategies[_strategyId].numPeriods,\n            idToStrategies[_strategyId].tokenBalance\n        );\n    }\n\n    function getStrategyAccountInfo(uint _strategyId)\n        public\n        view\n        returns (uint _createdAt, uint _nextAllowedAt, address _owner)\n    {\n        return (\n            idToStrategies[_strategyId].createdAt,\n            idToStrategies[_strategyId].nextAllowedAt,\n            idToStrategies[_strategyId].owner\n        );\n    }\n\n    function getStrategiesByAddress(address _investor)\n        public\n        view\n        returns (uint[] memory _strategyIds)\n    {\n        return addressToStrategyIds[_investor];\n    }\n\n    function getEthToTokenInputPrice(uint256 _ethSold)\n        public\n        view\n        returns (uint _)\n    {\n        return uniExchange.getEthToTokenInputPrice(_ethSold);\n    }\n\n}\n",
  "sourcePath": "/Users/michaeljcohen/Desktop/projects/uniswap-challenge/contracts/DCAInvestor.sol",
  "compiler": {
    "name": "solc",
    "version": "0.5.0+commit.1d4f565a.Emscripten.clang"
  },
  "schemaVersion": "3.0.2",
  "updatedAt": "2019-06-25T02:45:37.345Z",
  "devdoc": {
    "methods": {}
  },
  "userdoc": {
    "methods": {}
  }
}